:100000000C94A7000C94BC000C94BC000C94BC0095
:100010000C94BC000C94BC000C94BC000C94BC0070
:100020000C94BC000C94BC000C94BC000C94BC0060
:100030000C94BC000C94BC000C94BC000C94BC0050
:100040000C94BC000C94BC000C94BC000C94BC0040
:100050000C94BC0000407A10F35A00A0724E1809AC
:100060000010A5D4E80000E87648170000E40B541F
:10007000020000CA9A3B000000E1F50500008096EE
:100080009800000040420F000000A0860100000020
:10009000102700000000E8030000000064000000DA
:1000A00000000A00000000000100000000002C76A3
:1000B000D888DC674F0823DFC1DFAE59E1B1B796BE
:1000C000E5E3E453C63AE651997696E8E6C284261B
:1000D000EB898C9B62ED407C6FFCEFBC9C9F40F2F7
:1000E000BAA56FA5F490055A2AF75C936B6CF96773
:1000F0006DC11BFCE0E40D47FEF520E6B500D0ED38
:10010000902E0300943577050080841E080000209F
:100110004E0A000000C80C333333330F986E12833D
:100120001141EF8D2114893BE65516CFFEE6DB1811
:10013000D1844B381BF77C1D901DA4BBE4242032D6
:1001400084725E228100C9F124ECA1E53D271124CF
:100150001FBECFE5D8E0DEBFCDBF10E0A0E6B0E027
:10016000E8E2FFE002C005900D92A038B107D9F790
:100170000E9499010C9492070C94000095B39D7F06
:1001800095BB95B39E7F95BB82BB85B3846085BBD1
:1001900089EF90E00197F1F700C0000085B38B7FF5
:1001A00085BB089595B39D7F95BB95B3916095BB35
:1001B00082BB85B3846085BB89EF90E00197F1F73E
:1001C00000C0000085B38B7F85BB08950F931F93FC
:1001D000CF93DF938C01C0E0D0E009C00E94D20031
:1001E00087EA91E60197F1F700C000002196F80137
:1001F000EC0FFD1F80818111F1CFDF91CF911F9115
:100200000F9108958FEF81BB84B3876084BB87E82B
:1002100093E10197F1F700C0000088E30E94BE005F
:100220008EE00E94BE0081E00E94BE0089EF90E057
:100230000197F1F700C00000089530E037C080EF6B
:100240008ABB432F50E0BA016C5F7F4F81E090E0A2
:1002500002C0880F991F6A95E2F780958BBB20E05A
:1002600022C089B3622F70E090E0022E02C0959503
:1002700087950A94E2F780FD15C089B390E0062EB9
:1002800002C0959587950A94E2F780FFF6CF660F36
:10029000771F660F771F605A7F4FFB01E40FF51F32
:1002A000808108952F5F2430E0F23F5F343038F2D0
:1002B000C4CFCF930E941D01C82F81110E94D2008C
:1002C0008C2FCF910895CF92DF92EF92FF920F93F0
:1002D0001F93CF93DF93EC0100E060E070E0CB016F
:1002E00019C020E030E040E251E40E949C046B0120
:1002F0007C01612F70E060537109072E000C880BA0
:10030000990B0E94EC039B01AC01C701B6010E944E
:1003100007030F5FFE01E00FF11D10811111E1CF06
:10032000DF91CF911F910F91FF90EF90DF90CF90D1
:100330000895CF93DF93CDB7DEB7A2970FB6F894A9
:10034000DEBF0FBECDBF0E940201B12CC12CD12C4B
:10035000E12C66246394712C812C912CA12C412CCE
:10036000212C312C07C0412C22242394312C01C094
:100370001F2DF12E0E945901182F21E06216C1F0A5
:100380008B3231F08D3221F08A3211F08F3281F4CC
:10039000E1E0F0E0EC0FFD1FE40DF11D1082B72C41
:1003A000C82CD92CEA2C412C22242394312CE1CFC7
:1003B0001B3231F01D3221F01A3211F01F32C1F41C
:1003C00081E06812D0CFE1E0F0E0EC0FFD1FE40D1A
:1003D000F11D1082CE0101960E946301B62EC72E38
:1003E000D82EE92E612C412C22242394312CC1CF0C
:1003F0001D3309F0DBC0EBE0F0E0EC0FFD1FE40D76
:10040000F11D1082CE010B960E9463016F8F78A3BD
:1004100089A39AA39BE2F91669F09F1520F02AE2BE
:10042000F21631F180C08DE2F81699F09FE2F916CC
:1004300071F179C02F8D38A149A15AA16B2D7C2D66
:100440008D2D9E2D0E940703762E872E982EA92E85
:100450006AC02F8D38A149A15AA16B2D7C2D8D2DFD
:100460009E2D0E940603762E872E982EA92E5BC005
:100470002F8D38A149A15AA16B2D7C2D8D2D9E2D3C
:100480000E949C04762E872E982EA92E4CC020E028
:1004900030E0A9016F8D78A189A19AA10E94730310
:1004A000882379F02F8D38A149A15AA16B2D7C2D7D
:1004B0008D2D9E2D0E947803762E872E982EA92EA4
:1004C00032C080EC0E94BE0080E790E00E94E6000F
:1004D00080E090E00FC0E1E0F0E0EC0FFD1FE80FDE
:1004E000F91F1082EBE0F0E0EC0FFD1FE80FF91FA1
:1004F000108201968A30910574F32FE986E891E025
:10050000215080409040E1F700C0000081E00E944F
:10051000BE0080E80E94BE001F2D66246394412C1B
:10052000212C312C26CF80EC0E94BE008E010B5E68
:100530001F4F22E030E040E050E0672D782D892DFC
:100540009A2D0E94090580EC0E94BE00C8010E94FD
:10055000E60080E090E00FC0E1E0F0E0EC0FFD1F6E
:10056000E80FF91F1082EBE0F0E0EC0FFD1FE80F41
:10057000F91F108201968A30910574F32FE986E8FD
:1005800091E0215080409040E1F700C0000081E000
:100590000E94BE0080E80E94BE00CE0145960E94E7
:1005A000E6001F2D412C212C312CE3CE133691F483
:1005B00081E00E94BE001F2DB12CC12CD12CE12C5A
:1005C00066246394712C812C912CA12C412C212C1C
:1005D000312CCFCE2114310451F4E1E0F0E0EC0FE6
:1005E000FD1FE40DF11D108343941F2DC2CE21E0A9
:1005F0002216310409F0BCCEEBE0F0E0EC0FFD1F59
:10060000E40DF11D108343941F2DB3CE5058BB272A
:10061000AA270E941E030C9462040E94540438F01E
:100620000E945B0420F039F49F3F19F426F40C94E7
:1006300051040EF4E095E7FB0C944B04E92F0E9463
:10064000730458F3BA17620773078407950720F0FD
:1006500079F4A6F50C9495040EF4E0950B2EBA2FC0
:10066000A02D0B01B90190010C01CA01A0011124B8
:10067000FF27591B99F0593F50F4503E68F11A1664
:10068000F040A22F232F342F4427585FF3CF4695F5
:1006900037952795A795F0405395C9F77EF41F1617
:1006A000BA0B620B730B840BBAF09150A1F0FF0FE1
:1006B000BB1F661F771F881FC2F70EC0BA0F621FCD
:1006C000731F841F48F4879577956795B795F795BD
:1006D0009E3F08F0B0CF9395880F08F09927EE0F52
:1006E0009795879508950E94270408F481E008955E
:1006F0000E948C030C9462040E945B0458F00E94D8
:10070000540440F029F45F3F29F00C944B0451113C
:100710000C9496040C9451040E94730468F399237A
:10072000B1F3552391F3951B550BBB27AA276217ED
:100730007307840738F09F5F5F4F220F331F441FFA
:10074000AA1FA9F335D00E2E3AF0E0E832D091502E
:100750005040E695001CCAF72BD0FE2F29D0660F1B
:10076000771F881FBB1F261737074807AB07B0E85E
:1007700009F0BB0B802DBF01FF2793585F4F3AF064
:100780009E3F510578F00C944B040C9496045F3F07
:10079000E4F3983ED4F3869577956795B795F795EA
:1007A0009F5FC9F7880F911D9695879597F90895D2
:1007B000E1E0660F771F881FBB1F6217730784076E
:1007C000BA0720F0621B730B840BBA0BEE1F88F77D
:1007D000E0950895E89409C097FB3EF490958095C4
:1007E000709561957F4F8F4F9F4F9923A9F0F92FF7
:1007F00096E9BB279395F695879577956795B79575
:10080000F111F8CFFAF4BB0F11F460FF1BC06F5F5A
:100810007F4F8F4F9F4F16C0882311F096E911C06C
:10082000772321F09EE8872F762F05C0662371F08D
:1008300096E8862F70E060E02AF09A95660F771FA1
:10084000881FDAF7880F9695879597F90895990F7D
:100850000008550FAA0BE0E8FEEF16161706E8078A
:10086000F907C0F012161306E407F50798F0621BAB
:10087000730B840B950B39F40A2661F0232B242B80
:10088000252B21F408950A2609F4A140A6958FEF9F
:10089000811D811D089597F99F6780E870E060E0F1
:1008A00008959FEF80EC089500240A941616170609
:1008B00018060906089500240A9412161306140651
:1008C00005060895092E0394000C11F4882352F0B4
:1008D000BB0F40F4BF2B11F460FF04C06F5F7F4F6C
:1008E0008F4F9F4F089557FD9058440F551F59F053
:1008F0005F3F71F04795880F97FB991F61F09F3F0D
:1009000079F087950895121613061406551FF2CF35
:100910004695F1DF08C0161617061806991FF1CF85
:1009200086957105610508940895E894BB276627AC
:100930007727CB0197F908950E94AF040C946204C5
:100940000E94540438F00E945B0420F0952311F0BB
:100950000C944B040C94510411240C9496040E94A2
:10096000730470F3959FC1F3950F50E0551F629F7C
:10097000F001729FBB27F00DB11D639FAA27F00DF8
:10098000B11DAA1F649F6627B00DA11D661F829F1F
:100990002227B00DA11D621F739FB00DA11D621F04
:1009A000839FA00D611D221F749F3327A00D611D21
:1009B000231F849F600D211D822F762F6A2F112403
:1009C0009F5750409AF0F1F088234AF0EE0FFF1F36
:1009D000BB1F661F771F881F91505040A9F79E3F8D
:1009E000510580F00C944B040C9496045F3FE4F3A3
:1009F000983ED4F3869577956795B795F795E795E3
:100A00009F5FC1F7FE2B880F911D9695879597F9EB
:100A10000895EF920F931F93CF93DF93E80147FD63
:100A200002C034E001C034E1042E000C550B57FF26
:100A300003C0519541955109E32E022F242FAE0199
:100A40000E942905CE01DF91CF911F910F91EF9068
:100A50000895A9E0B0E0EFE2F5E00C9461076A01C7
:100A6000122FB02E2BE3201720F0FF24F394F00E6A
:100A700002C02CE3F22E0F2D27E0AE014F5F5F4F37
:100A80000E948306BC014981842F8970813031F036
:100A9000E1FC06C0E0FE06C090E205C09DE203C096
:100AA0009BE201C090E05E2D507143FF3CC091116C
:100AB00002C083E001C084E0811718F4212F281BB5
:100AC00001C020E051110BC0F601822F30E28823D3
:100AD00019F031938150FBCFC20ED11C20E0992335
:100AE00029F0D6019C93F60131966F01C601039659
:100AF000E2FE0AC03EE4D6013C9341E411964C93D9
:100B0000119712963C9306C03EE6F601308341E60B
:100B100041833283FC01322F40E2332309F442C087
:100B200041933150FACF42FF44C0911102C083E09B
:100B300001C084E0811718F4212F281B01C020E098
:100B400051110BC0F601822F30E2882319F0319346
:100B50008150FBCFC20ED11C20E0992329F0D60191
:100B60009C93F60131966F01C6010396E2FE0BC01D
:100B700039E4D6013C933EE411963C93119736E458
:100B800012963C9307C039E6F60130833EE6318386
:100B900036E63283FC01322F40E2332319F04193D1
:100BA0003150FBCFFC01E20FF11D10828EEF9FEF61
:100BB000A6C021E030E0911102C020E030E016161E
:100BC00017061CF4FB01319602C0E1E0F0E02E0FA5
:100BD0003F1FBB2021F0EB2DF0E0319602C0E0E09A
:100BE000F0E02E0F3F1FE12FF0E02E173F071CF41F
:100BF000121B212F01C020E08E2D887159F4F601BF
:100C0000822F30E2882319F031938150FBCFC20E3E
:100C1000D11C20E0992329F0D6019C93F60131964E
:100C20006F0151110BC0F601822F90E3882319F058
:100C300091938150FBCFC20ED11C20E00F2D060FE7
:100C40009A81342F307144FF03C0913309F401506D
:100C5000101624F4093018F008E001C001E0AB01DF
:100C600077FF02C040E050E0FB01E41BF50BA1E080
:100C7000B0E0AC0FBD1FEA0FFB1F8EE2A82E4B01A8
:100C8000801A91080B2D10E01195019511094F3F25
:100C9000BFEF5B0721F4D601AC9211966D0164178A
:100CA00075072CF08416950614F4818101C080E349
:100CB000415051093196D60111967D0140175107D7
:100CC00024F0D6018C936701E2CF6417750739F4DD
:100CD000963320F4953319F4311101C081E3F60104
:100CE0008083F701822F90E2882319F0919381503D
:100CF000FBCFF701E20FF11D108280E090E0299612
:100D0000ECE00C947D07283008F027E03327DA0167
:100D1000990F311D87FD916000966105710539F4C9
:100D200032602E5F3D9330E32A95E1F708959F3FAF
:100D300030F080387105610509F03C5F3C5F3D9300
:100D4000913008F08068911DDF93CF931F930F932C
:100D5000FF92EF92192F987F9695E92F9695969589
:100D6000E90FFF27E255FF4F99273327EE24FF2491
:100D7000A701E70105900894079428F4360FE71EB1
:100D8000F81E491F511D660F771F881F991F069473
:100D9000A1F70590079428F4E70EF81E491F561F87
:100DA000C11D770F881F991F661F0694A1F7059034
:100DB000079428F4F80E491F561FC71FD11D880F2E
:100DC000991F661F771F0694A1F70590079420F4DA
:100DD000490F561FC71FD81F990F661F771F881FFF
:100DE0000694A9F784911095177041F0D695C79590
:100DF00057954795F794E7941A95C1F7E4E5F0E025
:100E000068941590159135916591959105907FE2C3
:100E10007395E118F10A430B560BC90BD009C0F7C3
:100E2000E10CF11E431F561FC91FD01D7EF4703305
:100E300011F48A95E6CFE894015030F0080F0AF4D7
:100E40000027021708F4202F2395022F7A3328F069
:100E500079E37D932A95E9F710C07D932A9589F669
:100E6000069497956795379517951794E118F10AA9
:100E7000430B560BC90BD00998F023957E917395BF
:100E80007A3308F070E37C932013B8F77E91706199
:100E90007D9330F0839571E37D9370E32A95E1F7BC
:100EA0001124EF90FF900F911F91CF91DF9199271F
:100EB00087FD909508952F923F924F925F926F9287
:100EC0007F928F929F92AF92BF92CF92DF92EF92DA
:100ED000FF920F931F93CF93DF93CDB7DEB7CA1B5B
:100EE000DB0B0FB6F894DEBF0FBECDBF09942A8886
:100EF000398848885F846E847D848C849B84AA842E
:100F0000B984C884DF80EE80FD800C811B81AA81BA
:100F1000B981CE0FD11D0FB6F894DEBF0FBECDBF85
:080F2000ED010895F894FFCFE4
:100F28002B2D2A2F3D33363930323538633134375B
:100F38004572726F723A20446976206279203000D7
:00000001FF
